:020000040800F2
:1000000000000320A9860008858200088782000876
:10001000898200088B8200088D82000800000000A1
:100020000000000000000000000000008F820008B7
:100030009182000800000000938200089582000869
:10004000F9860008F9860008F9860008F986000894
:10005000F9860008F9860008F9860008F986000884
:10006000F9860008F9860008F9860008F986000874
:10007000F9860008F9860008F9860008F986000864
:10008000F9860008F9860008F9860008F986000854
:10009000F9860008F9860008F9860008F986000844
:1000A000F9860008F9860008F9860008F986000834
:1000B000F9860008F9860008F9860008F986000824
:1000C000F9860008F9860008F9860008F986000814
:1000D000F9860008F9860008F9860008F986000804
:1000E000F9860008F9860008F9860008F9860008F4
:1000F000F9860008F9860008F9860008F9860008E4
:10010000F9860008F9860008F9860008F9860008D3
:10011000F9860008F9860008F9860008F9860008C3
:10012000F9860008F9860008F9860008F9860008B3
:10013000F9860008F9860008F9860008F9860008A3
:10014000F9860008F9860008F9860008F986000893
:10015000F9860008F9860008F9860008F986000883
:10016000F9860008F9860008F9860008F986000873
:10017000F9860008F9860008F986000800000000EA
:10018000F9860008F9860008F9860008F986000853
:10019000F9860008F9860008F9860008F986000843
:0C01A00099820008F9860008A58200087A
:1001B00010B5054C237833B9044B13B10448AFF3A1
:1001C00000800123237010BD78060020000000008D
:1001D0009CAA000808B5034B1BB103490348AFF3C1
:1001E000008008BD000000007C0600209CAA0008DA
:1001F00009B900207047C0F3C613C0F38232D31888
:100200005943C91DC908420DC90002F00302430C3D
:10021000D14003F00F03042B0BD0082B01BFC0F318
:10022000C612C0F38230821801EB0221C91DC80832
:100230007047C0F3C612C0F38230821801EB02117E
:10024000C91DC808704710B5044608F056FA204684
:1002500010BDDFF81404016849084900016001205D
:10026000DFF80814886088680028FCD1DFF80024D3
:100270000A600868DFF8FC13884200D0FEE7A1A0FE
:100280007047DFF8E4030168490849000160012074
:10029000DFF8D813886088680028FCD1DFF8D02305
:1002A0000A600868DFF8CC13884200D0FEE70FF23E
:1002B000DC3210687047DFF8B00301684908490074
:1002C00001600120DFF8A413886088680028FCD151
:1002D000DFF89C230A600868DFF89813884200D092
:1002E000FEE70FF2AC3210687047DFF87C0301685C
:1002F0004908490001600120DFF8701388608868B0
:100300000028FCD1DFF868230A600868DFF864136E
:10031000884200D0FEE70FF27C321068704720B1AF
:100320000168DFF85423914200D00020DFF8381331
:100330000A68520852000A600121DFF830239160F8
:1003400091680029FCD1DFF8283313601168DFF8C9
:100350002423914200D0FEE77047DFF81C130160B0
:10036000704708467047704720B10168DFF80823DE
:10037000914200D00020BC490A68520852000A602D
:100380000121BA4A916091680029FCD1B84B1360F1
:100390001168B84A914200D0FEE700281CBF0C301B
:1003A00000F08AB90FF200300068704700281CBFC7
:1003B0000C3000F086B9704770B5049D044605986E
:1003C000DBB22D0445EA036545EA00250FF2DC2087
:1003D0000668A54801684908490001600120A34951
:1003E000886088680028FCD1A14B0B600868A1498F
:1003F000884200D0FEE71CB90FF2B420006870BD3F
:100400009D491160226000F055F910B90FF2882063
:100410000BE09A498D4228BF0FF2802005D20FF2DF
:10042000802000F063F918B99EA0066800212160C1
:10043000304670BD28B101688F4A914208BF02461C
:1004400000D0002288490B685B085B000B6001212B
:10045000864B996099680029FCD1DFF814C2C3F873
:1004600000C01968834B994200D0FEE702B100201A
:1004700070472DE9F04381B00A4618B101687E4B00
:10048000994200D0002078490B685B085B000B6044
:100490000121764B996099680029FCD1744C1C604D
:1004A0001968744B994200D0FEE740B30AB9112293
:1004B00006E0D16909B9132202E0D16841B91222DC
:1004C00010210C3000F0FDF8002001B0BDE8F083F1
:1004D00078CA00F1140100F1240781E8780092E85D
:1004E000005387E8005303218160C26B3AB19168E1
:1004F00050608A4218BF002918BF0A46F7D101B0E0
:10050000BDE8F083000000002DE9F04F83B028B172
:100510000368594CA34208BF054600D00025524845
:1005200003685B085B0003600120504B986098688B
:100530000028FCD14E4C1C6018684E4B984200D0ED
:10054000FEE7002D48D0AB6803F00300032802D07B
:10055000302211213CE00F001CBFF868002835D084
:10056000788808B9212232E014000BD0E16851B339
:10057000618811B9212213212AE0884202D0212268
:10058000022125E0D8054CBF02200020590A01F0C5
:10059000010141EA0008686BA96B066808680090D1
:1005A00071683068FFF724FE019000984168006888
:1005B000FFF71EFEF968002C024614BFD4F80CB0F9
:1005C0004FF0000B0CE01722132101E0172212213B
:1005D00005F10C0000F075F8002003B0BDE8F08FC5
:1005E00018F0020014BFDFF89890DFF898905FEAE7
:1005F000C8734CBFDFF888A0DFF88CA07B882B8203
:1006000000276F8208B9B160F16044B15FEAC87039
:1006100005D4009BC3F808B00098C0F80CB0688AF5
:100620002B8A98421CD22C463546019E1746884696
:10063000A86832464146C847A860B044204600F04A
:10064000D7F8009881683A465846D04700EB070B28
:10065000608A218A401C608280B28842E8D32546A5
:10066000688A03B0BDE8F08F002000E0003002404F
:10067000C2A507F4CDB5E8B50001C0A10100010194
:100680004702000863030008670300080303000033
:100690000100000001010000301000000110000006
:1006A0000384048402100000101000000000000009
:1006B00010100000012070470146002208680A60FF
:1006C000704703785FEA036C04D141EA02210160BC
:1006D000012070470020704710B50446E168884744
:1006E000A068A04208BF002010BD000000B581B086
:1006F00060B10178032909D15FF0040263A108F019
:1007000029F8401E8041C00F01B000BD002001B09B
:1007100000BD000042F21172811A012984BFC91E76
:100720000D2901D90F3945D1801A21D0401E21D081
:10073000801E21D0401E21D0401E21D0401E21D03D
:10074000401E21D0401E21D0401E21D0401E21D06D
:10075000401E21D0401E21D0401E21D0401E21D05D
:10076000401E21D0401E21D0801E21D012A07047F3
:1007700012A0704712A0704727A0704728A07047AA
:1007800010A0704710A0704727A070470FA07047B7
:1007900027A0704728A070472CA070472DA0704755
:1007A0000BA070472DA070472EA0704730A0704757
:1007B00034A0704700A0704700000000414444008E
:1007C000424E0000475255004C524E004E4C000025
:1007D000534D000042F21171401A012884BFC01E1F
:1007E0000D2801D90F3801D1012070470020704732
:1007F00030B5044681B0E06B58B12064256CE968DF
:1008000028468847A868A84208BF0020002820641E
:10081000F4D101B030BD0000434F4E5632440000C9
:1008200044454E53450000004C53544D0000000019
:100830004E4F524D000000004F5054494D495A450B
:10084000445F434F4E563244000000005045524D25
:1008500055544500504F4F4C0000000053504C4938
:100860005400000054494D455F44454C4159000037
:1008700054494D455F4449535452494255544544A7
:1008800000000000434F4E434154000003840484A1
:100890002DE9F04F81B00D9D139CDDF82C900E9E3C
:1008A0000A98DDF83CB0DDF840C0DDF844E0DDF842
:1008B00048802F1B09FB07FA371B07FB09F7009736
:1008C00088420CBF9FED860AB7EE000A05FB0CF5C7
:1008D00006FB09F706FB0C8606FB09F603EB86030D
:1008E0000C9EABEB0E0B04FB09F409FB05F5002E87
:1008F0000BFB07FB02EB85094ED00D46194632462D
:100900004FEA0003D3ED000ABEF1010F60EE800A4A
:100910004E4639DBDDF800C07046012C2CDB14F0AC
:1009200003080AD091ED001AD6ED001A361D091DF4
:10093000B8F1010841EE210AF4D1A70800F01C80AB
:1009400091ED002A96ED001AD1ED011AD6ED012A9B
:1009500042EE010A41EEA20A91ED022A96ED021A38
:10096000D1ED031AD6ED032A1036103142EE010AFA
:100970007F1E41EEA20AE3D1401E06EB8A0601EB80
:100980008C01CAD1CDF800C0C5ED000A2D1D1B1D7C
:10099000521E01EB8B01B5D101B0BDE8F08F000014
:1009A0002DE9F24F84B0149FDDF858B0119D1398D3
:1009B000159CDDF85CC0DDF83CA0109EDDF8489089
:1009C00009FB07BB114603EB8B0B0E9A049BA5EBAF
:1009D0000C0E001B9A420CBF9FED410AB7EE000AB5
:1009E0007D430AFB05F501EB8501002501EB8A0734
:1009F000B942B6FBFAF60AFB0EFEA9EB0C0800FBA7
:100A000009F0009768D20E920396039A002A5FD0ED
:100A1000049B0E9A029003EB8507039BCDF804100C
:100A200002EB8506D6ED000ADDF80490012C60EE9D
:100A3000800A41DB4FEA0402BCF1010F36DB1CF0F7
:100A400003010BD09BED001AD9ED001A491E41EEAF
:100A5000210A0BF1040B09EB8A09F3D15FEA9C0030
:100A600000F024809BED001AD9ED001A09EB8A01F1
:100A700041EE210ADBED011A91ED001A01EB8A012A
:100A800041EE810A9BED021AD1ED001A01EB8A01B9
:100A900041EE210ADBED031A91ED001A401E41EEF2
:100AA000810A0BF1100B01EB8A09DBD1521E09EB15
:100AB0008E090BEB880BBFD10298C7ED000A6D1CA5
:100AC0003F1D361D5B1E0BEB800BABD102980199CD
:100AD000009A091D914298D305B0BDE8F08F00003F
:100AE000000000002DE9F24F84B0DDF84CE0DDF8A5
:100AF00058C018981099129C159D0F9FAEEB0C0EC4
:100B00009246149AB1FBF2F91199CDF80C90091A9A
:100B100079431E46B7FBF2F304FB03FB0EFB0BFE0F
:100B2000DDF85CB0A7EB0309A4EB000804FB05B4F7
:100B30005C4306EB84040E9EDDF810B05E45119E0A
:100B40000CBF9FED3F0AB7EE000A75436F430AEBF7
:100B50008705002A08FB03F84FF0000A6CD00092CA
:100B6000039A002A62D00E9A049FCDF858C002EB77
:100B70008A06039ACDF808E007EB8A07CDF80450FF
:100B8000DDF858E0D6ED000A019DBEF1010F60EEE0
:100B9000800A3BDB012832DB4FEA000C05EB830BBC
:100BA0005D4527D294ED001AD5ED001A2D1D241DA8
:100BB0005D4541EE210A1DD294ED001AD5ED001AD3
:100BC0002D1D241D5D4541EE210A13D294ED001A1E
:100BD000D5ED001A2D1D241D5D4541EE210A09D2D7
:100BE00094ED001AD5ED001A2D1D241D5D4541EE32
:100BF000210AD7D3BCF1010C05EB8905CED1BEF19A
:100C0000010E05EB810504EB8804C3D1029DC7EDFD
:100C1000000A3F1D361D521E04EB85040AF1010A2D
:100C2000AED1DDF858C0DDF808E0019D009A521EF3
:100C300005EB8305009293D105B0BDE8F08F00006D
:100C4000000000002DE9F04F8DB0169C04B90C4651
:100C50001E9F1D9EDDF87080DDF880E01F9DDDF891
:100C600060C0DDF86490DDF868A0DDF86CB00B9032
:100C7000BF1B1798B8F1010FAEEB050E14D1CDF8DC
:100C800024E0089507970190CDF808C00696CDF8A6
:100C900014B0CDF810A0CDF80C9000940B98FFF78D
:100CA000F7FD0DB0BDE8F08F804514D1CDF824E0FC
:100CB000089507970190CDF808C00696CDF814B0B6
:100CC000CDF810A0CDF80C9000940B98FFF768FEBB
:100CD0000DB0BDE8F08FCDF828E009950897019098
:100CE000CDF808C00796CDF81880CDF814B0CDF82F
:100CF00010A0CDF80C9000940B98FFF7F3FE0DB008
:100D0000BDE8F08F70470000F0B40446049803EB90
:100D10008005203D08289FEDD90A2FD22035AB420F
:100D200024D2087893ED001A02EB8006181DD6ED48
:100D3000000AA84200EE810A18D24B7890ED001A02
:100D400002EB8306001DD6ED000AA84200EE810AE0
:100D50000CD28B7890ED001A02EB8306031DC91CA0
:100D6000D6ED000AAB4200EE810ADAD3D4ED000AD8
:100D700030EE800A84ED000AF0BC704701F00300F9
:100D80000328F3D8DFE800F00336414CEEE79D423C
:100D900080F0D5802035AB42E8D2087893ED001A78
:100DA00002EB8006181DD6ED000AA84200EE810A6B
:100DB000DCD24B7890ED001A02EB8306001DD6EDD5
:100DC000000AA84200EE810AD0D28B7890ED001A7A
:100DD00002EB8306031DC91CD6ED000AAB4200EEF0
:100DE000810ADAD3D4ED000A30EE800A84ED000ADD
:100DF000F0BC704711F8010B93ED001A02EB80066E
:100E00001B1DD6ED000A00EE810A11F8010B93EDCF
:100E1000001A02EB80061B1DD6ED000A00EE810AC7
:100E200011F8010B93ED001A02EB80061B1DD6EDA5
:100E3000000A9D4200EE810A4ED3CF7893ED004A1E
:100E400093ED013A93ED022A93ED031A02EB870624
:100E50008F78D6ED000A02EB87064F78D6ED001AA0
:100E600002EB87060F78D6ED002A02EB870603F126
:100E70001000D6ED003A0B7903EE840A02EE830AE5
:100E800001EE820A02EB830700EE810A4B79D7ED6F
:100E9000000A90ED004AD0ED013A90ED023AD0ED13
:100EA000032A02EB83078B7997ED001A02EB830785
:100EB000CB79D7ED001A02EB830700EE840A0831E4
:100EC00000F1100301EE230A97ED002A01EE830AD8
:100ED0009D4202EE220AB0D22035AB42BFF446AFAB
:100EE000087893ED001A02EB8006181DD6ED000A73
:100EF000A84200EE810ABFF439AF4B7890ED001A9A
:100F000002EB8306001DD6ED000AA84200EE810A1E
:100F1000BFF42CAF8B7890ED001A02EB8306031D13
:100F2000C91CD6ED000AAB4200EE810AD8D3D4ED3D
:100F3000000A30EE800A84ED000AF0BC7047CF78DA
:100F400093ED004A93ED013A93ED022A93ED031AD3
:100F500002EB87068F78D6ED000A02EB87064F7802
:100F6000D6ED001A02EB87060F78D6ED002A02EBC9
:100F7000870603F11000D6ED003A0B7903EE840AE0
:100F800002EE830A01EE820A02EB830700EE810A79
:100F90004B79D7ED000A90ED004AD0ED013A90ED83
:100FA000023AD0ED032A02EB83078B7997ED001A02
:100FB00002EB8307CB79D7ED001A02EB830700EE33
:100FC000840A083100F1100301EE230A97ED002A8C
:100FD00001EE830A9D4202EE220AB0D2DAE6000058
:100FE000F0B4049C65086D0003EB8505AB429FEDF2
:100FF000230A2FD211F8016B93ED002A93ED011A09
:1010000006F00F07360902EB860602EB8707D6EDDE
:10101000001AD7ED000A083301EE820AAB4200EE57
:10102000810A17D211F8016B93ED002A93ED011A92
:1010300006F00F07360902EB860602EB8707D6EDAE
:10104000001AD7ED000A083301EE820AAB4200EE27
:10105000810ACFD3E40709D5097893ED001A09096D
:1010600002EB8102D2ED000A00EE810AD0ED001AF7
:1010700031EE800A80ED000AF0BC704700000000ED
:101080002DE9F04F05469BB0686900680168426829
:1010900080680F68D2F800A0D0F800E04068BA6815
:1010A0000D920028DAF808300193DAF81010DAF817
:1010B0000C903C69D7F80C802B8C0C93AE8C0F965F
:1010C000EA6A2E8DDEF80C300E9392B2DEF808300C
:1010D00000933F68D7F808C0DEF80070D7F808E042
:1010E000AB691ABF006887680027DAF80000D0F8FB
:1010F00008A0E869002814BF0546DFF810575242DF
:1011000000290B926BD076421996CDF85890159421
:101110001091DDF838B00B9815990B9A169C199E12
:101120004042D8BF0020891A594528BF5946002C93
:1011300008FB02624BD00294CDF838B0019CDDF878
:1011400000901493CDF84CC0CDF848E0119718905A
:1011500017919346029F7042D8BF0020A8EB06016A
:10116000494528BF49460A910990CDF81090CDF81D
:101170000C80029458441799189A129B0891079270
:1011800014990E9A069105920D99119A0191009267
:101190000D9A1399504301EB800251460020FFF74E
:1011A00051FD224651465046A8470C9886197F1E8D
:1011B0000AEB840A8344CED10194CDF80090DDF887
:1011C00038B0149BDDF84CC0DDF848E0119F0B9956
:1011D0000F9A109C5118641E0B9110949BD11BB058
:1011E000BDE8F08F2DE9F04F0346B5B058690068AF
:1011F00001684268D1F800B017688068D0F800A094
:1012000044680BF1140191E864102DA880E8641083
:10121000DBF808000490B96803913869FA681B92FA
:10122000DBF810500D95DBF80C2002921D8C119507
:101230009A8C198D1091B3F82CC0D3F830E05D6B07
:10124000ADF804509E690C96DAF8081000919D6B79
:10125000DAF80C100F95DD6B1A951D6C19955D6C05
:101260001D953E6AD3F84880DD6C46430596002CF8
:10127000FE691896DBF80060B6681796DAF8006029
:10128000B6680B961ABF2468D4F808B04FF0000B6C
:10129000DC69002C12BF0E94DFF870450E941E6DB1
:1012A000009C16966D42029B3F68BDF80460A3EB5C
:1012B0000409109B119C994419FA8EF3D7F808E0A1
:1012C000059FB3FBF4F40D9B5B1A63449E19B6FBB8
:1012D000F2F3641C5B1C77440028159700F018811A
:1012E000C8F10008CDF8D0802A9314952490149B5F
:1012F000149D1A9E2A98002BD8BF00237519A84266
:1013000032BF0746149FF7191B98349D002800F040
:10131000F680DE1B3396CDF8ACC025942393289736
:10132000139522901398139B0F9C0028CCBF064660
:1013300000262598E318984232BF0346139BE31812
:101340003398F41A04FB00FA2398289CA042F04634
:101350004FF0000980F2C5802B9C239D2C925043B6
:10136000041B28982196451B1198279312941F95CA
:10137000129A0D9B129C279E5242D8BF00221B1B23
:101380008B423ABF0D9B1D1B0D46219C109B444375
:10139000E31A219CB44280F29980AD1A3295A6EBF3
:1013A000040C129D309E049C009FCDF898B07543AC
:1013B0003195CDF880A0039D029E11901C91CDF82F
:1013C000A4E01E929A46E346319ADDF8BCE0DAF1D9
:1013D0000001D8BF002101EB0A0C0EFB0C22A6EB8A
:1013E0000A00B84217980244269834BFA6EB0A03B5
:1013F0003B4608B94FEA0800DDF830E0DDF8C8C028
:101400005B1ABEF1010F12D108910993CDF81CC0EF
:101410001E9906911C9905910090049703960295D8
:10142000019441460B9B0020FFF732FA28E0A645C5
:1014300012D1099308910090CDF81CC0049703962F
:101440000295019400201C9B1E990593069141462C
:101450000B9BFFF7A5FA13E009910A930090CDF8D2
:1014600020C0049703960295019400201E990C9BBE
:10147000079106931C990B9B05914146FFF732FBA0
:101480000E9B2A464146404698472098DDF858C0B2
:1014900009F10109484518BF002000902B46299802
:1014A0002A464146E0471198DDF85480BBF1010B14
:1014B000824489D111981C99DDF898B0DDF8A4E038
:1014C000DDF880A00494039502960097129A2C9B55
:1014D0009A1812921F9A521E1F927FF449AF1190D0
:1014E0002C9A1398199B18181390229B18985B1E1E
:1014F000864422937FF416AFDDF8ACC0259C149B84
:101500001D9D249EEB18761E149324967FF4EFAE57
:1015100035B0BDE8F08F00002DE9F04F89B040698B
:101520000068016842688068D0F8008044680E68EE
:10153000D2F800E0DEF80C00DEF81020B568DEF826
:1015400008105043D8F8002013684FEA535AC3F3E9
:10155000C6190AF0030A5B0C002729FA0AF903F0FE
:101560000F03CDF80490042B366814BF082BD768FE
:10157000DEF80020D8F81830D2F80890B2680028B9
:1015800009EB810666D0CDF81C800594069104977E
:1015900000960390079801688868059909B10C685E
:1015A000A168049C002C009C10D1A14547D2A24602
:1015B0002E464F461C46904681460D46002D19BFCB
:1015C00055F8040B02900021029128E0A14536D283
:1015D000049C009F9846164682468B46BBF1000F3E
:1015E00019BF5BF8040B029000200290019900954E
:1015F000042933462246514602A803D1FFF7F0FCE6
:1016000002E000BFFFF780FB029849F8040BB945E0
:10161000C244E3D304944346324600970FE0334676
:101620004246494602A800F0F5FF029847F8040B2D
:101630005745A144C2D335462346B9464246009891
:10164000069900EB810403980094401E02EB85028A
:1016500003909FD109B0BDE8F08F00002DE9F04F55
:101660008AB015468B469A46149BD0F804C0696828
:1016700000915C680294B3F8009004885E8840880A
:10168000BBF80010BBF80220B5F800E06F88DBF86B
:1016900004300593049300254FFA8AF3002B0CBF06
:1016A000A0468046012F0CBF00230423BEF1010F8A
:1016B00004D1012F07D0C6F1000E05E0012F08BFAD
:1016C0004FF0010E00D0AE460FFA8EF701974FFA99
:1016D0008AF7002F0CBFA3468346CB4515D19DF951
:1016E0004CE0BEF1000F0CBF91468946B1450CD1CC
:1016F0004FFA8AF6002E0CBF8346A346BEF1000FB8
:101700000CBF0E461646B3456CD06FF002000AB00F
:10171000BDE8F08F059D9700089786000796CDF8E5
:1017200018C0ADF802404446DDF810C04FFA8AF602
:10173000DDF81880002E9FED341A0CBF0646BDF868
:101740000260B6B14FFA8AF7002F0CBF0427079F3B
:10175000BEF1000FD8ED001A95ED002AB8440CBF79
:10176000089F0427ED19761EB7B2002F01EE821AEA
:10177000E8D120EE011ADBED001A641E00EEA11A7A
:10178000A4B2BEF1000F89ED001A0EBF151B0D1B90
:101790005543002C09F104099B440CEB8505C5D188
:1017A000DDF80C90069DBDF80240CDF810C0099EF2
:1017B0004E4403964FFA8AF6002E0CBF4FEA800C77
:1017C0004FF0040CAC44019D0BEB850BBDF80050B1
:1017D0006E1EADF80060BDF8005055B900200AB08B
:1017E000BDE8F08FDDF800B00395ADF80080CDF8CE
:1017F000249003AE029D3688BEF1000F05EB8609EA
:101800000CBF9046884685E700000000050D0008E3
:10181000F0B58BB0416909680A68496809680D68C4
:10182000146853689268AD68CE680F690995ADF881
:101830002070ADF822602568E668AD682469ADF8CF
:101840001840ADF81A6007951C68DD68A4681B692C
:10185000ADF81030ADF8125005941368D4689B6849
:101860001269ADF80820ADF80A4008AA0393019266
:1018700002AA90F92110009104A990F92030D0ED2E
:10188000070A90ED060A06A8FFF7E8FE0BB0F0BDC8
:101890002DE9F0410F4614462DED028B022C064631
:1018A00097ED008ADFEDC38A3DD3611E3A1D11F02A
:1018B00003000CD092ED000AB4EE480AF1EE10FAE3
:1018C00058BFB0EE408A401E02F10402F2D18908EE
:1018D00000F02B8092ED000AB4EE480AF1EE10FA07
:1018E00058BFB0EE408A92ED010AB4EE480AF1EE1C
:1018F00010FA58BFB0EE408A92ED020AB4EE480AE0
:10190000F1EE10FA58BFB0EE408A92ED030AB4EE41
:10191000480AF1EE10FA58BFB0EE408A491E02F1B3
:101920001002D7D101E0002C40D0B0464FEA0405A8
:1019300097ED000A30EE480A08F0A2F83F1D88ED46
:10194000000A6D1E78EE808A08F10408F0D1B7EE27
:10195000000A14F0030080EE280A09D0D6ED000A30
:1019600060EE800AC6ED000A401E06F10406F5D1BD
:10197000A4081BD0D6ED000A60EE800AC6ED000A6E
:10198000641E96ED011AD6ED020A21EE001A86EDCC
:10199000011A60EE800A96ED031AC6ED020A21EEE6
:1019A000001A86ED031A06F11006E3D1BDEC028B96
:1019B000BDE8F0812DE9F04381B00C4604EB8209CB
:1019C000089E099F4C4580461D460AD22A4621465C
:1019D0004046FFF75DFF04EB86044C4508EB8708A3
:1019E000F4D301B0BDE8F08370B50D4605EB820677
:1019F000B542044680F00A8095ED000A07F0EEFF3C
:101A000084ED000A241D2D1DB542F5D370BD0000E4
:101A100070B50D4605EB8206B542044680F0148091
:101A200095ED000AB1EE400A08F02AF8F7EE000A38
:101A300070EE200AB7EE000A80EE200A84ED000A5C
:101A4000241D2D1DB542EBD370BD000001EB8202B9
:101A5000914216D24FF0FF3391ED000AB5EE400AE5
:101A6000F1EE10FACCBF9FEDC60A00EE103A091D48
:101A70008446B8EEC00A91420CF104008CED000AD5
:101A8000EAD3704701EB8202914216D2034691EDF0
:101A9000001A181DB4EE410AF1EE10FA58BFB0EE6C
:101AA000401AB4EE601AF1EE10FA58BFB0EE601AA8
:101AB000091D914283ED001AE8D3704701EB8202C1
:101AC00091420FD2034691ED000A181DB5EE400A6F
:101AD000F1EE10FAD8BF9FED370A091D914283ED50
:101AE000000AEFD37047000001EB820291421AD244
:101AF000B1EE080A0346D1ED000A181DF5EE400AC2
:101B0000F1EE10FA08DDF4EE400AF1EE10FA58BFDB
:101B1000F0EE400A02E000BFDFED260A091D914207
:101B2000C3ED000AE6D37047F0B581B00D4605EB72
:101B300082062DED048BB5420446F0EE408AB0EEED
:101B4000608A32D2274695ED009A3C1DB5EE409A48
:101B5000F1EE10FA4CBFDFED179AF0EE499AB0EEB5
:101B6000490A07F08DFFFFEE000A30EE200A20EE52
:101B7000280AB5EE400AF1EE10FA05DD9FED0D1AC8
:101B800079EE819A0AE000BFB0EE490A07F078FFCB
:101B9000FFEE000A30EE200A40EE289A2D1D28EEB6
:101BA000290AB54287ED000ACCD3BDEC048B01B005
:101BB000F0BD00000000000001EB8303994220D239
:101BC00091ED000A92ED001AB5EE400AF1EE10FA1E
:101BD0004CBFDFEDA50AF0EE400AB1EE400AB5EECB
:101BE000400AF1EE10FA48BF9FED9F0A091D121D31
:101BF000844641EE400A99420CF10400CCED000A03
:101C0000DED37047406903681968D1F800C0DCF87A
:101C10000420DCF80800DCF80C104243DCF810006B
:101C2000DCF800C04A4359680B684243DCF80800FE
:101C3000D3F800C0DCF8081000EB820290420FD20B
:101C40000B4690ED000A191DB5EE400AF1EE10FAB0
:101C5000D8BF9FED850A001D904283ED000AEFD3A7
:101C600070470000406903681968D1F800C0DCF8CB
:101C70000420DCF80800DCF80C104243DCF810000B
:101C8000DCF800C04A4359680B684243DCF808009E
:101C9000D3F800C0DCF8081000EB820290421AD2A0
:101CA000B1EE080A0B46D0ED000A191DF5EE400A08
:101CB000F1EE10FA08DDF4EE400AF1EE10FA58BF2A
:101CC000F0EE400A02E000BFDFED670A001D90421F
:101CD000C3ED000AE6D37047F0B581B02DED048B5B
:101CE000416990ED078A0D68D0ED068A2A6814686C
:101CF00020686368A168E2684B432169846868686A
:101D000053434B4301680A68956804EB8306B44269
:101D100031D22F4694ED009A3D1DB5EE409AF1EE7A
:101D200010FA4CBFDFED509AF0EE499AB0EE490A36
:101D300007F0A6FEFFEE000A30EE200A20EE280A89
:101D4000B5EE400AF1EE10FA04DD9FED471A79EE88
:101D5000819A09E0B0EE490A07F092FEFFEE000A10
:101D600030EE200A40EE289A241D28EE290AB442BB
:101D700087ED000ACDD3BDEC048B01B0F0BD0000AF
:101D80000100000030B441690C68226815686B6876
:101D9000A968EA6880694B4329692D6853436268E2
:101DA00014684B43A96825680468AA68A06801EB19
:101DB000830399421FD2144691ED000A221DB5EE0D
:101DC000400AF1EE10FA4CBFDFED270AF0EE400AB0
:101DD000B1EE400AB5EE400AF1EE10FA48BF9FEDB1
:101DE000220A90ED001A091D001D41EE400A994299
:101DF000C4ED000ADFD330BC7047000040690368BF
:101E00001968D1F800C0DCF80420DCF80800DCF820
:101E10000C104243DCF81000DCF800C04A4359685B
:101E20000B684243DCF80800D3F800C0DCF8081067
:101E300000EB8202904216D24FF0FF3390ED000A81
:101E4000B5EE400AF1EE10FACCBF9FED080A00EEA5
:101E5000103A001D8C46B8EEC00A90420CF1040105
:101E60008CED000AEAD3704700000000010000007A
:101E700030B4416990ED070A0C68D0ED060A22687B
:101E800015686B68A968EA68286880684B43296907
:101E900053434B4361680A681468A16800EB8302EE
:101EA000904216D20B4690ED001A191DF4EE410A2D
:101EB000F1EE10FA58BFB0EE601AB4EE401AF1EE2F
:101EC00010FA58BFB0EE401A001D904283ED001A80
:101ED000E8D330BC7047000070B5406903681968EA
:101EE0000C686268A068E168424320692468A468BD
:101EF0004A434243586801680B689D6804EB8206B8
:101F0000B44213D294ED000AB1EE400A07F0B8FDD6
:101F1000F7EE000A70EE200AB7EE000A80EE200A03
:101F200085ED000A2D1D241DB442EBD370BD0000C9
:101F300070B54069036819680C686268A068E16858
:101F4000424320692468A4684A43424358680168B0
:101F50000B689D6804EB8206B44209D294ED000A36
:101F600007F03CFD85ED000A2D1D241DB442F5D37C
:101F700070BD30B583B04069046821680D68AA68F7
:101F80000192009213466868E968424328692D6807
:101F90004A43424360680468A9682568A868FFF757
:101FA00009FD03B030BD000070B401EB8204A14212
:101FB00057D2002B51D013F003020D46064611D024
:101FC00096ED000AD5ED000AF4EE400AF1EE10FAA3
:101FD00058BFB0EE600A86ED000A521E361D2D1D58
:101FE000002AEDD19A0838D0D5ED000AD6ED001AB6
:101FF000F4EE610AF1EE10FA48BFF0EE610AC6EDA8
:10200000000AD5ED010AD6ED011A96ED020AF4EEAA
:10201000610AF1EE10FA48BFF0EE610AC6ED010A5E
:1020200095ED021AD6ED031AB4EE401AF1EE10FA4D
:1020300048BFB0EE401A86ED021AD5ED030AF4EE61
:10204000610AF1EE10FA58BFF0EE601AC6ED031AFD
:10205000521E10361035002AC6D101EB8301A14271
:10206000A7D370BC7047000070B401EB8204A1429A
:102070004FD2002B49D013F003020D4606460ED076
:1020800095ED000A88421CBFD6ED000A30EE800AAA
:1020900086ED000A521E361D2D1D002AF0D19A0829
:1020A00033D08842D5ED001A0CD1C6ED001A95ED5B
:1020B000010A86ED010AD5ED021AC6ED021AD5ED28
:1020C000031A1BE0D6ED000A30EEA10A86ED000AE5
:1020D00096ED011A95ED010AD6ED021A31EE000ACD
:1020E00086ED010AD5ED020A31EEA00A86ED020A5C
:1020F00096ED030A95ED031A70EE011AC6ED031A68
:10210000521E10361035002ACBD101EB8301A142BB
:10211000AFD30399A1B300EE101AB8EE400AF7EE60
:10212000000A80EE800A5BB313F0030100F00A801E
:10213000D0ED000A60EE800AC0ED000A491E00F1F1
:102140000400F5D19B081BD0D0ED000A60EE800A98
:10215000C0ED000A5B1E90ED011AD0ED020A21EEDF
:10216000001A80ED011A60EE800A90ED031AC0EDAE
:10217000020A21EE001A80ED031A00F11000E3D1EB
:1021800070BC70472DE9F04F03468EB05869006867
:10219000016840680C68076821693D690991FA681F
:1021A0000892D4F80C80A1689A69D86907905E6A91
:1021B000186A0D963F682468D7F808E0DF6A9E6ABF
:1021C000A4687F42002D009700F0D98001957642E7
:1021D0000C9601FB08F50B95009D009B009F6D423E
:1021E000099DCCBF0026009EEB1A079DAB4288BF1D
:1021F0002B46DF19089B0C9D002B00F0B78008FBD5
:1022000006FACDF828A0CDF80C800292069005962B
:1022100004976842039F029ADDF82C80CCBF00200F
:1022200028467F1B974288BF17460A9A7F193F1A94
:10223000801848434F4304EB800C11B311F00300A6
:102240007246664600F0068056F8049B42F8049BEE
:10225000401EF9D1880814D096ED000A82ED000ADC
:10226000401ED6ED010AC2ED010A96ED020A82ED8A
:10227000020AD6ED030AC2ED030A10321036002816
:10228000EAD10598049A904266DA1046059A821AB5
:10229000E2460AEB870BDA455AD2002954D011F0F6
:1022A00003005646F14612D099ED000AD6ED000A19
:1022B000F4EE400AF1EE10FA58BFB0EE600A401E8C
:1022C000361D89ED000A002809F10409ECD18808BF
:1022D00000F03A80D6ED000AD9ED001AF4EE610A5A
:1022E000F1EE10FA48BFF0EE610AC9ED000AD6ED32
:1022F000010AD9ED011A99ED020AF4EE610AF1EE34
:1023000010FA48BFF0EE610AC9ED010A96ED021A13
:10231000D9ED031AB4EE401AF1EE10FA48BFB0EE50
:10232000401A89ED021AD6ED030AF4EE610AF1EEC5
:1023300010FA58BFF0EE601A401E1036C9ED031AAD
:10234000002809F11009C5D10AEB810ADA45A4D3A6
:10235000521E0CEB880C9BD1069845195B1E0EEBA8
:10236000810E7FF456AFDDF80C80029A009D0D9B24
:102370005D190095019D6D1E01957FF42DAF0EB086
:10238000BDE8F08F2DE9F04F94B0416909680A6803
:10239000496815680E682A6933690C92F4680B94D1
:1023A000EA68A968D0F81880C4690A94D0F820C0F7
:1023B000476A13972D68876A3468C06AD5F808E0C1
:1023C000D4F808904042002B019000F020817F4219
:1023D00001FB02F403931297119401980C9B019E48
:1023E000129C40420198CCBF0027019F181A0A9BFB
:1023F000984288BF184686190B98002800F0FE8086
:10240000054602FB07F010900592B81B0F90CDF81F
:102410001080CDF824C0CDF820E0079706960094F0
:1024200002950098059ADDF800E0119C4042009862
:10243000CCBF4FF0000CDDF800C0101A049A904297
:1024400088BF104686440F98109AACEB0E054543A2
:10245000089862444A43AEEB0C0600EB82074E43F9
:10246000002289B111F003004B4603D0401E43F80F
:10247000042BFBD1880807D01A605A609A60DA6092
:10248000401E03F11003F7D10798069B984280F293
:10249000A3801B1AAEEB0C000D900E9494460D9881
:1024A00084446545BE460CBF2C4600240EEB8608CE
:1024B000C6454ED20022002947D011F00300F24653
:1024C000CB4610D09AED000AF1451CBFDBED000AA7
:1024D00030EE800A521C8BED000A401E0BF1040BFB
:1024E0000AF1040AEED1880800F02F800EEB820A70
:1024F00009EB8202DAED001AF1451CBF92ED000AE9
:1025000070EE211AC2ED001ADAED011A1CBFD2EDED
:10251000010A70EEA11AC2ED011A9AED021A1CBF4F
:1025200092ED020A30EE011A82ED021ADAED031A78
:102530001CBFD2ED030A70EEA11AC2ED031A401EB1
:10254000103200280AF1100AD4D10EEB810EC645D4
:10255000B0D3002C3AD000EE104AB8EE400AF7EEA5
:10256000000A80EE800A002281B311F003004C467D
:1025700000F00B80D4ED000A60EE800A521CC4ED1E
:10258000000A401E04F10404F4D1880800F01E8003
:1025900009EB8202D2ED000A60EE800AC2ED000A69
:1025A000401E92ED011AD2ED020A21EE001A82EDD0
:1025B000011A60EE800A92ED031AC2ED020A21EEC2
:1025C000001A82ED031A02F11002E3D10E985B1E8D
:1025D00007EB80077FF463AF0098099A101800900A
:1025E00009EB81090298401E02907FF41AAF059A08
:1025F000DDF81080DDF824C0DDF820E0019C139B9D
:102600001C190194039C641E03947FF4E6AE14B07D
:10261000BDE8F08F30B50446084681B011461A4631
:10262000002500956B4602F05DFA94ED000ADDEDA1
:10263000000A70EE200AC4ED000A01B030BD0000AF
:10264000F0EE400AF5EE400AF1EE10FA9FED280A8E
:1026500001DBB1EEE00A704707F012BA07F08ABA60
:1026600007F0BCB9B5EE400AF1EE10FAD8BF9FED05
:10267000200A7047B5EE400AF1EE10FAD8BF20EEFE
:10268000200A704700B581B0B1EE400A07F0F8F9B2
:10269000F7EE000A30EE200AB7EE001A81EE000ACB
:1026A00001B000BDF0EE400A9FED121AB6EE000A2E
:1026B00000EE810ADFED100AB4EE600AF1EE10FAC6
:1026C00007DAB5EE400AF1EE10FA04D59FED080ADC
:1026D0007047B7EE000A7047B5EE400AF1EE10FA07
:1026E000CCBF9FED060A9FED060AB8EEC00A704700
:1026F00000000000CDCC4C3E0100803F01000000F6
:10270000FFFFFFFF000000000000000000000000CD
:1027100001F0FF01102A2BDB10F0070F08D010F892
:10272000013B013A8B422DD010F0070F42B3F6D196
:10273000F0B441EA012141EA014122F007047FF0AF
:1027400000070023F0E80256083C85EA010586EA06
:10275000010685FA47F5A3FA87F586FA47F6A5FA42
:1027600087F68EB9EED1F0BC01F0FF0102F007024E
:1027700032B110F8013B013A83EA010313B1F8D1F9
:102780000020704701387047002D06BF35460338DA
:10279000073815F0010F07D1013015F4807F02BF13
:1027A000013015F4C03F0130F0BC0138704700BF64
:1027B00081F0004102E000BF83F0004330B54FEAF2
:1027C00041044FEA430594EA050F08BF90EA020F5F
:1027D0001FBF54EA000C55EA020C7FEA645C7FEAF2
:1027E000655C00F0E2804FEA5454D4EB5555B8BF15
:1027F0006D420CDD2C4480EA020281EA030382EA86
:10280000000083EA010180EA020281EA0303362D17
:1028100088BF30BD11F0004F4FEA01314FF4801CEA
:102820004CEA113102D0404261EB410113F0004FFC
:102830004FEA03334CEA133302D0524263EB4303B3
:1028400094EA050F00F0A780A4F10104D5F1200E51
:102850000DDB02FA0EFC22FA05F2801841F10001AC
:1028600003FA0EF2801843FA05F359410EE0A5F180
:1028700020050EF1200E012A03FA0EFC28BF4CF0B1
:10288000020C43FA05F3C01851EBE37101F0004567
:1028900007D54FF0000EDCF1000C7EEB00006EEB74
:1028A0000101B1F5801F1BD3B1F5001F0CD34908FE
:1028B0005FEA30004FEA3C0C04F101044FEA445255
:1028C00012F5800F80F09A80BCF1004F08BF5FEADC
:1028D000500C50F1000041EB045141EA050130BDBC
:1028E0005FEA4C0C404141EB010111F4801FA4F15F
:1028F0000104E9D191F0000F04BF01460020B1FAB4
:1029000081F308BF2033A3F10B03B3F120020CDAEB
:102910000C3208DD02F1140CC2F10C0201FA0CF0C9
:1029200021FA02F10CE002F11402D8BFC2F1200C2E
:1029300001FA02F120FA0CFCDCBF41EA0C019040E4
:10294000E41AA2BF01EB0451294330BD6FEA04042D
:102950001F3C1CDA0C340EDC04F11404C4F1200218
:1029600020FA04F001FA02F340EA030021FA04F32A
:1029700045EA030130BDC4F10C04C4F1200220FA81
:1029800002F001FA04F340EA0300294630BD21FABF
:1029900004F0294630BD94F0000F83F4801306BF85
:1029A00081F480110134013D4EE77FEA645C18BF79
:1029B0007FEA655C29D094EA050F08BF90EA020F10
:1029C00005D054EA000C04BF1946104630BD91EA08
:1029D000030F1EBF0021002030BD5FEA545C05D10B
:1029E0004000494128BF41F0004130BD14F580044A
:1029F0003CBF01F5801130BD01F0004545F0FE41BE
:102A000041F470014FF0000030BD7FEA645C1ABFF2
:102A1000194610467FEA655C1CBF0B46024650EA29
:102A2000013406BF52EA033591EA030F41F4002155
:102A300030BD00BF90F0000F04BF0021704730B5DB
:102A40004FF4806404F132044FF000054FF00001B0
:102A500050E700BF90F0000F04BF0021704730B571
:102A60004FF4806404F1320410F0004548BF404246
:102A70004FF000013EE700BF42004FEAE2014FEA9B
:102A800031014FEA02701FBF12F07F4393F07F4F76
:102A900081F06051704792F0000F14BF93F07F4FA8
:102AA000704730B54FF4607401F0004521F00041EB
:102AB00020E700BF50EA010208BF704730B54FF071
:102AC00000050AE050EA010208BF704730B511F076
:102AD000004502D5404261EB41014FF4806404F1AE
:102AE00032045FEA915C3FF4DCAE4FF003025FEA30
:102AF000DC0C18BF03325FEADC0C18BF033202EBB8
:102B0000DC02C2F1200300FA03FC20FA02F001FA11
:102B100003FE40EA0E0021FA02F11444C1E600BFB0
:102B200070B54FF0FF0C4CF4E06C1CEA11541DBF63
:102B30001CEA135594EA0C0F95EA0C0F00F0DEF82E
:102B40002C4481EA030621EA4C5123EA4C5350EA13
:102B5000013518BF52EA033541F4801143F4801364
:102B600038D0A0FB02CE4FF00005E1FB02E506F0F5
:102B70000042E0FB03E54FF00006E1FB03569CF04A
:102B8000000F18BF4EF0010EA4F1FF04B6F5007F50
:102B900064F5407404D25FEA4E0E6D4146EB0606C2
:102BA00042EAC62141EA55514FEAC52040EA5E504B
:102BB0004FEACE2EB4F1FD0C88BFBCF5E06F1ED8F5
:102BC000BEF1004F08BF5FEA500E50F1000041EB2C
:102BD000045170BD06F0004646EA010140EA0200D9
:102BE00081EA0301B4EB5C04C2BFD4EB0C0541EAFB
:102BF000045170BD41F480114FF0000E013C00F310
:102C0000AB8014F1360FDEBF002001F0004170BD33
:102C1000C4F10004203C35DA0C341BDC04F114044C
:102C2000C4F1200500FA05F320FA04F001FA05F2D8
:102C300040EA020001F0004221F0004110EBD370A5
:102C400021FA04F642EB06015EEA430E08BF20EAD1
:102C5000D37070BDC4F10C04C4F1200500FA04F374
:102C600020FA05F001FA04F240EA020001F0004106
:102C700010EBD37041F100015EEA430E08BF20EA79
:102C8000D37070BDC4F1200500FA05F24EEA020EC1
:102C900020FA04F301FA05F243EA020321FA04F0F0
:102CA00001F0004121FA04F220EA020000EBD370A7
:102CB0005EEA430E08BF20EAD37070BD94F0000FA7
:102CC0000FD101F00046400041EB010111F4801FDB
:102CD00008BF013CF7D041EA060195F0000F18BF8C
:102CE000704703F00046520043EB030313F4801FC8
:102CF00008BF013DF7D043EA0603704794EA0C0F82
:102D00000CEA135518BF95EA0C0F0CD050EA410697
:102D100018BF52EA4306D1D181EA030101F0004114
:102D20004FF0000070BD50EA410606BF104619463C
:102D300052EA430619D094EA0C0F02D150EA013648
:102D400013D195EA0C0F05D152EA03361CBF104689
:102D500019460AD181EA030101F0004141F0FE4128
:102D600041F470014FF0000070BD41F0FE4141F4AC
:102D7000780170BD70B54FF0FF0C4CF4E06C1CEAAC
:102D800011541DBF1CEA135594EA0C0F95EA0C0F61
:102D900000F0A7F8A4EB050481EA030E52EA03351C
:102DA0004FEA013100F088804FEA03334FF080553D
:102DB00045EA131343EA12634FEA022245EA11156A
:102DC00045EA10654FEA00260EF000419D4208BF1B
:102DD000964244F1FD0404F5407402D25B084FEAC8
:102DE0003202B61A65EB03055B084FEA32024FF474
:102DF00080104FF4002CB6EB020E75EB030E22BFD1
:102E0000B61A754640EA0C005B084FEA3202B6EB90
:102E1000020E75EB030E22BFB61A754640EA5C003F
:102E20005B084FEA3202B6EB020E75EB030E22BFCF
:102E3000B61A754640EA9C005B084FEA3202B6EBD0
:102E4000020E75EB030E22BFB61A754640EADC008F
:102E500055EA060E18D04FEA051545EA16754FEAF1
:102E600006164FEAC30343EA52734FEAC2025FEA0F
:102E70001C1CC0D111F4801F0BD141EA00014FF09E
:102E800000004FF0004CB6E711F4801F04BF01436F
:102E90000020B4F1FD0C88BFBCF5E06F3FF6AFAE8B
:102EA000B5EB030C04BFB6EB020C5FEA500C50F11B
:102EB000000041EB045170BD0EF0004E4EEA11319E
:102EC00014EB5C04C2BFD4EB0C0541EA045170BDA5
:102ED00041F480114FF0000E013C90E645EA060EE9
:102EE0008DE60CEA135594EA0C0F08BF95EA0C0F17
:102EF0003FF43BAF94EA0C0F0AD150EA01347FF45F
:102F000034AF95EA0C0F7FF425AF104619462CE735
:102F100095EA0C0F06D152EA03353FF4FDAE104698
:102F2000194622E750EA410618BF52EA43067FF4E9
:102F3000C5AE50EA41047FF40DAF52EA43057FF479
:102F4000EBAE12E74FF0FF3C06E000BF4FF0010C84
:102F500002E000BF4FF0010C4DF804CD4FEA410CE8
:102F60007FEA6C5C4FEA430C18BF7FEA6C5C1BD0B5
:102F700001B050EA410C0CBF52EA430C91EA030F36
:102F800002BF90EA020F0020704710F1000F91EA93
:102F9000030F58BF994208BF90422CBFD8176FEA61
:102FA000E37040F0010070474FEA410C7FEA6C5C2F
:102FB00002D150EA013C07D14FEA430C7FEA6C5C36
:102FC000D6D152EA033CD3D05DF8040B704700BF62
:102FD0008446104662468C461946634600E000BFB0
:102FE00001B5FFF7B7FF002848BF10F1000F01BD82
:102FF0004DF808EDFFF7F4FF0CBF012000205DF84D
:1030000008FB00BF4DF808EDFFF7EAFF34BF0120D1
:1030100000205DF808FB00BF4DF808EDFFF7E0FF6A
:1030200094BF012000205DF808FB00BF4DF808EDBB
:10303000FFF7CEFF94BF012000205DF808FB00BF22
:103040004DF808EDFFF7C4FF34BF012000205DF804
:1030500008FB00BF4FEA4102B2F1E04324BFB3F5E1
:10306000001CDCF1FE5C0DD901F0004C4FEAC002FF
:103070004CEA5070B2F1004F40EB830008BF20F0E3
:103080000100704711F0804F21D113F13872BCBF9D
:1030900001F00040704741F480114FEA5252C2F1F2
:1030A0001802C2F1200C10FA0CF320FA02F018BF3B
:1030B00040F001004FEAC1234FEAD32303FA0CFC8E
:1030C00040EA0C0023FA02F34FEA4303CCE77FEA1D
:1030D000625307D150EA01331EBF4FF0FE4040F467
:1030E0004000704701F0004040F0FE4040F4000016
:1030F000704700BF53B94AB9002908BF00281CBF58
:103100004FF0FF314FF0FF3000F07AB9ADF1080C0D
:103110006DE904CE00F006F8DDF804E0DDE90223F5
:1031200004B070472DE9F0478C460D460446089ED2
:10313000002B51D18A4217466DD9B2FA82FEBEF1F8
:10314000000F0BD0CEF1200C01FA0EF520FA0CFC8A
:1031500002FA0EF74CEA050C00FA0EF44FEA174A91
:10316000250CBCFBFAF81FFA87F90AFB18CC45EAD4
:103170000C4508FB09F3AB420AD9ED1908F1FF32FF
:1031800080F02381AB4240F22081A8F102083D4447
:10319000ED1AA4B2B5FBFAF00AFB105544EA054457
:1031A00000FB09F9A14509D9E41900F1FF3380F0CA
:1031B0000A81A14540F2078102383C44A4EB09048E
:1031C00040EA08400021002E61D024FA0EF40023CA
:1031D00034607360BDE8F0878B4207D9002E54D06D
:1031E000002186E821000846BDE8F087B3FA83F1A4
:1031F000002940F08E80AB4202D3824200F2FA8076
:10320000841A65EB03050120AC46002E3FD086E80A
:103210001010BDE8F08712B90127B7FBF2F7B7FA33
:1032200087FEBEF1000F34D1EB1B3A0C1FFA87FC6E
:103230000121B3FBF2F8250C02FB183345EA0345E4
:103240000CFB08F3AB4207D9ED1908F1FF3002D2AD
:10325000AB4200F2D1808046ED1AA3B2B5FBF2F08A
:1032600002FB105543EA05440CFB00FCA44507D9BA
:10327000E41900F1FF3302D2A44500F2B8801846E9
:10328000A4EB0C0440EA08409DE731463046BDE817
:10329000F087CEF1200405FA0EF307FA0EF720FAB4
:1032A00004F83A0C25FA04F448EA0308B4FBF2F1F6
:1032B0004FEA184502FB11441FFA87FC45EA044512
:1032C00001FB0CF3AB4200FA0EF409D9ED1901F140
:1032D000FF3080F08A80AB4240F2878002393D4463
:1032E000EB1A1FFA88F5B3FBF2F002FB103345EA44
:1032F000034500FB0CF3AB4207D9ED1900F1FF3891
:103300006FD2AB426DD902383D44EB1A40EA01411D
:103310008FE7C1F1200722FA07F88B4005FA01F484
:1033200048EA030320FA07FE4FEA134CFD404EEA39
:10333000040EB5FBFCF94FEA1E440CFB19551FFAAD
:1033400083F844EA054509FB08F4AC4202FA01F2AD
:1033500000FA01FA08D9ED1809F1FF3043D2AC4266
:1033600041D9A9F102091D442D1B1FFA8EFEB5FBA0
:10337000FCF00CFB10554EEA054400FB08F8A04594
:1033800007D9E41800F1FF3529D2A04527D9023822
:103390001C4440EA0940A4EB0804A0FB02894C4508
:1033A000C6464D4615D312D056B1BAEB0E0364EBA8
:1033B000050404FA07F7CB401F43CC403760746024
:1033C0000021BDE8F0871846F8E69046E0E6C245E1
:1033D000EAD2B8EB020E69EB03050138E4E72846B0
:1033E000D7E7404691E78146BEE7014678E70238D5
:1033F0003C4445E7084608E7A8F102083D442BE7AE
:10340000704700BFF02070474FF4A070704729202C
:1034100000F058BC282000F055BC08B500F0DAFBDD
:10342000CA2000F04FFCC32000F030FC082000F060
:103430002DFC502000F02AFCCF2000F043FC00209F
:1034400000F024FCC12000F021FC302000F01EFC24
:10345000ED2000F037FC642000F018FC032000F0A1
:1034600015FC122000F012FC812000F00FFCE82077
:1034700000F028FC852000F009FC002000F006FC8C
:10348000782000F003FCCB2000F01CFC392000F079
:10349000FDFB2C2000F0FAFB002000F0F7FB3420AD
:1034A00000F0F4FB022000F0F1FBF72000F00AFC32
:1034B000202000F0EBFBEA2000F004FC002000F0EC
:1034C000E5FB002000F0E2FBB12000F0FBFB002058
:1034D00000F0DCFB1B2000F0D9FBB62000F0F2FB73
:1034E0000A2000F0D3FBA22000F0D0FBC02000F0A7
:1034F000E9FB102000F0CAFBC12000F0E3FB102024
:1035000000F0C4FBC52000F0DDFB452000F0BEFB51
:10351000152000F0BBFBC72000F0D4FB902000F08A
:10352000B5FB362000F0CEFBC82000F0AFFBF22048
:1035300000F0C8FB002000F0A9FBB02000F0C2FBA7
:10354000C22000F0A3FBB62000F0BCFB0A2000F074
:103550009DFBA72000F09AFB272000F097FB04209A
:1035600000F094FB2A2000F0ADFB002000F08EFB61
:10357000002000F08BFB002000F088FBEF2000F023
:1035800085FB2B2000F09EFB002000F07FFB00203D
:1035900000F07CFB012000F079FB3F2000F076FB7F
:1035A000F62000F08FFB012000F070FB002000F0FF
:1035B0006DFB062000F06AFB2C2000F083FBC82086
:1035C00000F0D2FB262000F07DFB012000F05EFB26
:1035D000E02000F077FB0F2000F058FB292000F0DE
:1035E00055FB242000F052FB0C2000F04FFB0E2076
:1035F00000F04CFB092000F049FB4E2000F046FB98
:10360000782000F043FB3C2000F040FB092000F054
:103610003DFB132000F03AFB052000F037FB17209C
:1036200000F034FB112000F031FB002000F02EFBF5
:10363000E12000F047FB002000F028FB162000F0FE
:1036400025FB1B2000F022FB042000F01FFB1120B3
:1036500000F01CFB072000F019FB312000F016FBE6
:10366000332000F013FB422000F010FB052000F097
:103670000DFB0C2000F00AFB0A2000F007FB2820BD
:1036800000F004FB2F2000F001FB0F2000F0FEFAF9
:10369000112000F017FBC82000F066FB292000F085
:1036A00011FB2C20BDE8084000F00CBB08B500F071
:1036B00091FA0321D32000F021FB80B208BD10B5A0
:1036C000C4B202220321204600F07CFB0A2000F055
:1036D000C5FB20460022032100F074FB0220BDE858
:1036E000104000F0BBBB38B50446E4B200F03EFB2E
:1036F0000021204600F080FB01210546204600F015
:103700007BFB40EA052080B238BD10B5C4B2402131
:10371000204600F071FB030607D54C21204600F03F
:103720006BFB003018BF012010BD204601224B2149
:1037300000F048FB204600224B2100F043FB002014
:1037400010BD73B50423C4B20E461546D7210DEB48
:103750000302204600F06CFB019B1BBA1A0DC3F359
:103760000B23328020462B8001224B2100F02AFBC4
:1037700000224B21204600F025FB02B070BD000066
:1037800010B50B4A13789842044610D051788842FD
:1037900003D110BD59B9012301E0002BFAD1D45453
:1037A00000F0E4FA2046BDE81040FFF788BF10BDE6
:1037B0009406002010B5C4B20921204600F01CFB7D
:1037C00040F00102D2B220460921BDE8104000F0CD
:1037D000F9BA10B5C4B20921204600F00DFB092149
:1037E00000F0FE022046BDE8104000F0EBBA38B50C
:1037F000C5B20C4628460A2100F0FEFA40EA04024F
:10380000D2B228460A21BDE8384000F0DBBA10B534
:10381000044600F0ADFA20461F21FFF7E8FF2046DE
:10382000BDE81040FFF7C6BF38B5C5B20C46284604
:103830000A2100F0E1FA20EA0402D2B228460A2165
:10384000BDE8384000F0BEBA10B50446FFF7C1FF2E
:1038500020461F21BDE81040FFF7E6BF10B5C0B2FB
:103860000C460B2100F0C8FA204010BD1F21FFF7C5
:10387000F5BF0A46C0B20B2100F0A4BA1F21FFF722
:10388000F8BF38B5C5B20C462846172100F0B4FA87
:1038900020EA0402D2B228461721BDE8384000F0E1
:1038A00091BA70B5C4B206460421204600F0A4FACD
:1038B000042100F0FB020546204600F083FA304662
:1038C000F021FFF7DEFF05F0F8022046042100F0AA
:1038D00079FA49222021204600F074FA022000F0F3
:1038E000BDFA20460122212100F06CFA20469A22DE
:1038F000412100F067FA204601224A2100F062FAD5
:10390000204601224B2100F05DFA204600224B2187
:1039100000F058FA20460122562100F053FA2046C2
:103920000122582100F04EFA20460122402100F0E9
:1039300049FA2046FF220B2100F044FA0220BDE89C
:10394000704000F08BBA000010B5214C88B02046C2
:1039500003F062FB002838D11E4B23601823E3617B
:103960000723E3624FF40073A3614FF48273636033
:10397000194B0190A06060612061A062E06020624C
:1039800060625A6C42F480125A645A6C02F48012DB
:103990000192019A02901A6B104842F020021A63B9
:1039A0001B6B03F020030293029B4FF4607303939D
:1039B0000223049305930123069303A90523079388
:1039C00001F048FC204603F0A5F808B010BD00BF88
:1039D00098060020005001400038024000140240C8
:1039E00070B5334E88B0304602F0F0F90446002836
:1039F0005BD1304A304B314D009086E80C004FF4DB
:103A00008043B060F0607061B061F061306233613A
:103A10002B6B43F004032B632B6B03F00403009325
:103A2000009B01902B6B43F001032B632B6B0590E4
:103A300003F001030193019B21484FF4807303932A
:103A4000122304930223069303A90423079301F08E
:103A500001FC4FF4007303A91A48039301F0FAFB29
:103A600002942B6C43F400032B642B6C03F40003CF
:103A70000293029B2B6A43F400032B622B6A23F40C
:103A800000032B6222460F21482001F0DBF848207A
:103A900001F00CF922460F21492001F0D3F849200A
:103AA00001F004F9304601F037FF08B070BD00BFE7
:103AB000347B0220005C0040A086010000380240F8
:103AC000000002400008024008B5034801F0C8FFAA
:103AD000BDE80840FFF784BF347B022007B5094BDF
:103AE00002A91B6821F8020D0122074803F065F8BE
:103AF00020B1054803F04BF8FFF726FF03B05DF84F
:103B000004FB00BF6C0000209806002070B504463E
:103B100088B008BB184B01901A6B42F040021A6340
:103B20001B6B03F040030193019B144B144D33F8BE
:103B3000146055F82400039601230493059303A908
:103B40000223069301F086FB0022314655F824003B
:103B500001F006FD08B070BD0128E6D100230293F4
:103B6000054B1A6B42F040021A631B6B03F04003D3
:103B70000293029BD9E700BF00380240B8AA0008B0
:103B800060000020044B33F81010044B012253F85E
:103B9000200001F0E5BC00BFB8AA000860000020CA
:103BA000044B33F81010044B002253F8200001F0AE
:103BB000D7BC00BFB8AA000860000020034B33F850
:103BC0001010034B53F8200001F0CFBCB8AA000836
:103BD00060000020F0B5294B1D7889B0002D4AD136
:103BE000274C009501261E70236B264843F00803DE
:103BF0002363236B049603F0080300930227009BC2
:103C000005954FF4005303A90393069701F022FB97
:103C10000195236B1B4843F008032363236B049631
:103C200003F008030193019B05954FF4805303A90A
:103C30000393069701F00EFB0295236B124843F0A5
:103C400004032363236B049603F004030424029308
:103C500003A9029B03940595069701F0FBFA2A46F7
:103C60002146094801F07CFC32462146064801F015
:103C700077FCFFF769FE09B0F0BD00BF9606002093
:103C800000380240000C02400008024038B50B4CDE
:103C9000054601224FF40051094801F061FC002261
:103CA0000421204601F05CFC2846FFF717FF204660
:103CB00001220421BDE8384001F052BC0008024056
:103CC000000C024038B50B4C054600224FF4005161
:103CD000094801F045FC00220421204601F040FC87
:103CE0002846FFF7FBFE204601220421BDE83840AC
:103CF00001F036BC00080240000C024037B5054612
:103D00000C4600220421144801F02AFC00224FF442
:103D10000051124801F024FC2846FFF7DFFE104B4B
:103D200010481B68224601A903F0DFF820B10D48B6
:103D300002F02DFFFFF708FE01224FF40051074863
:103D4000019C01F00DFC01220421034801F008FC54
:103D5000204603B030BD00BF00080240000C024006
:103D60006C0000209806002000F046BFFFF738BE28
:103D700010B586B00024104B00941A6B0F4842F027
:103D800001021A631B6B049403F001030093009B70
:103D90004FF4004301930123039301A9084B0293BD
:103DA00001F058FA22460F21282000F04BFF28206E
:103DB00000F07CFF06B010BD003802400000024059
:103DC0000000211010B586B006AC094B04F8012D97
:103DD0001B68029301230A4601930146009405489B
:103DE00001F058FE08B1FFF76FFE06B010BD00BF2E
:103DF00068000020347B02207FB506AA002302F869
:103E0000013D094B1B68029301238DE80C000A4613
:103E10000146064801F0CEFE08B1FFF755FE9DF8B9
:103E2000170007B05DF804FB68000020347B022017
:103E30001FB5084C24688DE81C000A460123014682
:103E4000054801F0B7FE10B1FFF73EFE012004B0B7
:103E500010BD00BF68000020347B022000F0CCBE03
:103E60002DE9F743154C0B9D98464FF440336360A2
:103E70000023A3600A9BE3608146114B2360204628
:103E80000E46174601F048F8A0B94946204601F011
:103E900097F978B9CDF800803B463246294620464E
:103EA00001F066F830B90A21204603B0BDE8F043BE
:103EB00001F078B803B0BDE8F08300BFF40600203D
:103EC00000B0024008B5024B1B689B6A984708BDCA
:103ED000307C022008B5024B1B68DB6A984708BD9E
:103EE000307C022070B58EB000240E460546019449
:103EF000FFF7E8FF03940290FFF7ECFFFF23069320
:103F00004FF4C063089307230993059407948DF831
:103F100034408DF835408DF8364004900A96FFF70E
:103F2000D1FF0B90FFF7D6FF0B4C0C902A4601A94E
:103F3000204602F0DFF8094B0C2068431A184FF0B6
:103F4000FF315160064991604FF07F421A50204680
:103F500002F02EF90EB070BD887B022034070020DD
:103F600088000020014B1860704700BFF006002059
:103F7000084A136812688433C001012919580CBF1C
:103F800041F0010121F001011950536A43F001038E
:103F900053627047887B022038B5064C05460246BE
:103FA000204602F0D0F829462046BDE8384002F00D
:103FB000E7B800BF887B0220034B1A680C235343E9
:103FC000024AD050704700BFF0060020340700209E
:103FD000034B044A1B680C2101FB03235860704704
:103FE000F006002034070020034B044A1B680C2114
:103FF00001FB032398607047F0060020340700207F
:104000001E4B70B51B680D461D490446342000FB4D
:104010000310866C3EB9C66DFFF754FF00FB0540E8
:1040200056F8200070BD012E09D1C66DFFF74AFF7A
:1040300000FB054056F8200020F07F4070BD072EA1
:104040009DBF9422F240D243012212F0010F4FF0A3
:10405000340202FB0313DE6D07D1FFF733FF00FBD1
:10406000054036F8100080B270BDFFF72BFF00FB53
:10407000054016F81000C0B270BD00BFF006002069
:10408000887B02200C4BF7B51C680C4A342303FBD9
:1040900004230746DD6DFFF715FF0646FFF71AFFFD
:1040A0000023009301970346324629462046FFF736
:1040B000D7FE03B0F0BD00BFF0060020887B0220D1
:1040C0002DE9F3410F4D17462B680F4A0C4634215A
:1040D00001FB03238046DE6DFFF7F4FE2D680B4ADB
:1040E0000C236B4300FB0480D358019300230093FF
:1040F00006EB800101233A462846FFF7B1FE02B0E5
:10410000BDE8F081F0060020887B02203407002003
:104110002DE9F347114D124B0C4629689046342285
:1041200002FB01318146CF6DFFF7CCFE8246FFF7DF
:10413000C9FE2E680B4B0C2575430AFB04945B5992
:104140000193013800904346012207EB8401304679
:10415000FFF786FE02B0BDE8F08700BFF006002042
:10416000887B022034070020F8B51E460D46044621
:104170001746FFF7A5FFA9193A46204689B2FFF76F
:104180009FFF324629462046FFF7C2FFE01932461C
:10419000294680B2BDE8F840FFF7BABF024B1B6862
:1041A0009B6803B118477047307C022030B58FB050
:1041B000494B4A4D4A484B4C00220192596C41F000
:1041C00080615964596C01F08061019101990292FA
:1041D000196B41F400011963196B01F4000102919C
:1041E00002990392196B41F001011963196B01F0F7
:1041F0000101039103990492196B41F002011963C3
:10420000196B01F00201049104990592196B41F0B8
:1042100004011963196B01F00401059105990692D7
:10422000196B41F008011963196B01F0080106913F
:1042300006990792196B41F020011963196B01F07F
:104240002001079107990892196B41F04001196309
:104250001B6B0B9203F040030893089B41F6580335
:10426000099302230A930C9309A90E230D9300F0DE
:10427000F1FF4FF4706309A92846099300F0EAFFA3
:104280004FF4986309A91848099300F0E3FF482305
:1042900009A91648099300F0DDFF4FF4806309A9CE
:1042A0001348099300F0D6FF4FF40C6309A9204688
:1042B000099300F0CFFF0323099309A90923284696
:1042C0000D9300F0C7FF4FF4A05309A920460993AE
:1042D00000F0C0FF0FB030BD0038024000040240C3
:1042E000000002400018024000080240000C02409A
:1042F0000014024038B5224C224B2360092363612D
:104300000123A3611D23E3610323236240F20D1304
:10431000636240F24313A36240F217131A48E36248
:1043200040F24713236308230360C023036104237F
:10433000002583614FF40033436284F8365084F8DB
:10434000345084F8355002F0F1F96560A560E560FD
:104350002561FFF72BFF204601F000FE0B4A0C4BB6
:1043600013601B68984700F0FDFA0A4B0A4A1B6865
:104370000C2101FB0323094A9A60284638BD00BF7F
:10438000887B0220006801404C070020307C02201E
:1043900000000020F00600203407002088000020E4
:1043A000F8B5084B16461B68074A0C46342101FB3A
:1043B00003230746DD6DFFF785FD00FB047045F81C
:1043C0002060F8BDF0060020887B02202DE9F04F28
:1043D0002F4B85B01B6802912E4901900C2000FBE9
:1043E0000313A2F120049968B1F804A0B1F806B053
:1043F0000A680AF10706F6100BFB04F4CAEBC600C4
:1044000006FB04240AF1FF3252FA80F34FF0000851
:104410000393029BD84503EB08091FFA89F902D3DD
:1044200005B0BDE8F08F012E09D0022E0FD06578BF
:1044300022782D0245EA0245A278154300E025784E
:104440000027BA4508D808F101083444E1E722788A
:10445000657845EA0225F3E7039B0122D91B8A40D0
:104460000B492A4209684FF00C020AD0019B4A43CB
:10447000D819084B9A58494680B2FFF791FF013787
:10448000DFE7044B02FB0132019B5268D819F2E7C7
:10449000F0060020340700202DE9F74F9A46044625
:1044A0000F4616461346A3EB060913F8012B002A04
:1044B000F9D1FFF707FD254B254D1A680C2101FBAB
:1044C0000252BAF1010F926898469288B0FBF2F05E
:1044D00021D0BAF1020F25D0B3464FF00C0A9BF859
:1044E0000020003218BF01220192FFF7EBFCD8F840
:1044F00000300AFB0353ABEB06099B689B881FFA4D
:1045000089F903FB190080B2984201D3019A72B96C
:1045100003B0BDE8F08FA0EB0900504304EB50005E
:1045200084B2D9E7A0EB090010FB0240F8E720466F
:104530001BF8012B3946FFF749FFD8F800300AFB7A
:1045400003539B689888204484B2C8E7F006002093
:10455000340700202DE9F04F89B05400494FDFF8AF
:10456000288102900391C4F1030416464FF0000A1B
:104570004FF00C091FFA8AF30193019A029B13442E
:104580009BB20693039B0698B5B2A3EB050BD8F834
:10459000003009FB03F31FFA8BFBFA585946FFF76B
:1045A000FFFE019A029B9B1A9BB20493D8F800303D
:1045B000049809FB03F35946FA58FFF7F1FE029BF2
:1045C000019A2B449BB20593039B05989B1AD8F83C
:1045D000002009FB02F29BB21946BA580793FFF775
:1045E000DFFE029BD8F80020A3EB050B09FB02F2CB
:1045F000079BBA581FFA8BFB19465846FFF7D0FEA7
:10460000039B06981D44D8F8003009FB03F3ADB2B4
:10461000FA582946FFF7C4FED8F80030049809FB81
:1046200003F32946FA58FFF7BBFE039B019A05984E
:104630009D18D8F8003009FB03F3ADB2FA582946AB
:10464000FFF7AEFED8F8003009FB03F32946FA580D
:104650005846FFF7A5FE002CB5BF0634AAEB0603AB
:1046600004EB8A040A34A8BF06F1FF360AF1010AF6
:10467000A8BF04EB83045645BFF47CAF09B0BDE886
:10468000F08F00BF34070020F00600202DE9F74F1F
:104690005400824689469346C4F103041646002519
:1046A000BEB1B7B2AAEB07031FFA85F87F009BB231
:1046B000BFB209EB080118463A4689B20193FFF7E9
:1046C000FFFC019BA9EB08013A4689B21846FFF7A7
:1046D000F7FCBDB1AFB2AAEB07031FFA86F87F0063
:1046E0009BB2BFB2A9EB080118463A4689B20193C2
:1046F000FFF7E6FC019B09EB08013A4689B2184630
:10470000FFF7DEFC002CB5BF0634AB1B04EB8504C1
:104710000A34A8BF06F1FF3605F10105A8BF04EB76
:104720008304AE42BCD25A464946504603B0BDE867
:10473000F04FFFF70FBF00002DE9F347234C244D46
:1047400001264FF000080827214682464FF6FF72E7
:104750002846CDF8048084E8C000A660C4F80C8028
:1047600002F01CF9304600F047FA022321464FF6CA
:10477000FF72284684E888004FF00409A660C4F858
:104780000C8002F00BF9032321464FF6FF722846F6
:1047900084E88800C4F80890C4F80C8002F0FEF8A1
:1047A0004FF40C730193019BE3604FF6FF722146B7
:1047B0002846C4F800906760A66002F0EFF8514602
:1047C000284602F002F902B0BDE8F0877C0700201D
:1047D0008C07002070B506468EB0002800F0AD8032
:1047E000574B5848002501959A6B42F001029A6395
:1047F0009A6B02F001020192019A02951A6B42F43F
:1048000080021A631A6B02F480020292029A0395E4
:104810001A6B42F002021A631A6B02F00202039250
:10482000039A04951A6B42F004021A631A6B02F0A1
:1048300004020492049A05951A6B42F008021A6366
:104840001A6B02F008020592059A06951A6B42F05F
:1048500010021A631A6B02F010020692069A07956C
:104860001A6B42F020021A631A6B02F020020792C0
:10487000079A08951A6B42F040021A631B6B0B955E
:1048800003F040030893089B02230EAC0A930C9399
:104890000C230D93602344F8143D214600F0DAFC0C
:1048A000012321462848099300F0D4FC4CF20373FD
:1048B00021462648099300F0CDFC4FF6837321462C
:1048C0002348099300F0C6FC4FF63F0321462148D8
:1048D000099300F0BFFC214648F233131E4C1F48D9
:1048E000099300F0B7FC8023A3604FF40073E360EA
:1048F0004FF4806323614FF4805363614FF480432E
:10490000A3614FF4003323620323A3622563144B96
:104910003463204623606560E5616562E562A663F5
:1049200000F08EFA204600F00DFA38202A460F21BA
:1049300000F088F9382000F0B9F90EB070BD00BF62
:10494000003802400004024000080240000C02400F
:104950000010024000140240DC0700200018024052
:104960001064024070B51A4C1A4D1B4B2360022391
:104970002B602B616B61AB6110232361402363616A
:104980004FF4C0730721A3614FF4006304226960F0
:10499000E96001260021236220464FF40053E260C3
:1049A000A362AA606660A160E1616162FFF712FF25
:1049B0002946204601F0D2FF084C002814BF30469B
:1049C0000020207040F26A50FFF7B6FE207870BDDC
:1049D0008C070020C0070020400100A070000020CC
:1049E00038B50C4B0C4C18800C4B82201980636836
:1049F000984740F6110398420AD1094D23682C606C
:104A0000822098472B688220DB689847002038BDB9
:104A1000012038BD40080020380000204208002056
:104A20003C08002073B52A4D2B6804461B69822080
:104A3000984780B22080002848D02B680DF10602EC
:104A40005B6901A982209847BDF80630A3F5B473CD
:104A50009BB20B22B3FBF2F333B11E4A128893428E
:104A600084BF02F1FF339BB2BDF8042040F6B83199
:104A70008A4295BFC2F57162C2F56D620E3208328C
:104A8000ADF80420BDF804000F22B0FBF2F030B105
:104A9000114A1288904284BF02F1FF3080B20F4E5B
:104AA0000F4D3268296890428CBF821A121A8B42CD
:104AB0008CBF591AC91A92B289B20A44052AC4BFD6
:104AC00030602B60336863802B68A38002B070BDB8
:104AD0003C08002042080020400800204408002034
:104AE00048080020F0B5DFED1B7A960805460C4615
:104AF0003746103510345FB93401214402F0030207
:104B0000204401EB820291421CD1C3ED007AF0BD3A
:104B100055ED046A14ED047AE6EE877A013F55ED0F
:104B2000036A14ED037AE6EE877A55ED026A14ED16
:104B3000027AE6EE877A55ED016A14ED017AE6EE27
:104B4000877AD6E7F0EC016AB1EC017AE6EE877A73
:104B5000D9E700BF0000000038B50E4A0E4B0546ED
:104B600018784FF47A73B3FBF0F31068B0FBF3F0EE
:104B700000F0AAF8044658B90F2D09D80246294674
:104B80004FF0FF3000F05EF8044B20461D6038BD4A
:104B9000012038BD0C0600207100002074000020A8
:104BA00008B50B4B1A6842F400721A601A6842F496
:104BB00080621A601A6842F480721A60032000F062
:104BC0002FF80020FFF7C8FF03F040FB002008BDCE
:104BD000003C0240034A044B11681B780B441360ED
:104BE000704700BF347C022071000020014B186820
:104BF000704700BF347C022038B50446FFF7F6FF4B
:104C0000631C1CBF054B1B78054618BFE418FFF753
:104C1000EDFF401B8442FAD838BD00BF7100002070
:104C2000074AD36823F4E0631B041B0C43F0BF6303
:104C3000000243F4003300F4E0600343D3607047A4
:104C400000ED00E0174B30B5DC68C4F30224C4F17A
:104C50000703251D042B28BF0423062D4FF0010553
:104C600005FA03F303F1FF338CBF033C0024194022
:104C7000A14005FA04F4013C2240002842EA010266
:104C80004FEA0212ADBF00F1604000F00F00064B8A
:104C900000F56140B5BFD2B2D2B21A5480F80023F9
:104CA00030BD00BF00ED00E014ED00E0002808DB9F
:104CB0004209012300F01F0003FA00F0014B43F802
:104CC0002200704700E100E00138B0F1807F0AD295
:104CD000064B074A5860F02182F823100020072273
:104CE00098601A6070470120704700BF10E000E034
:104CF00000ED00E010B5044660B1437903F0FF0217
:104D000013B9027102F0ECFD022363710123637198
:104D1000002010BD012010BD0368DAB223F47F73B8
:104D200023F003031821103AB2FBF1F20449032ADD
:104D300088BF0433895C8365C165806D704700BF9F
:104D4000BCAA000870B50446FFF750FF0546002CCA
:104D500071D0002384F834302268022384F835307F
:104D6000136823F00103136021680B68D8073CD453
:104D70000B68324D6268A0691D40A3681343E26866
:104D800013432269134362691343E26903431343E4
:104D9000226A1343626A042A43EA050301BF266BB1
:104DA000E56A35432B430B604B69042A23F0070364
:104DB00043EA02030BD1A26AE56A13433DB1F8B995
:104DC000012A2DD001D3022A01D1EA012BD44B6153
:104DD0002046FFF7A1FFE26D3F2393408360002050
:104DE0000123606584F8353070BDFFF7FFFE401B7E
:104DF0000528B9D920236365032084F8350070BDE8
:104E0000B0F5005F13D1032AE1D801A050F822F0D9
:104E1000274E0008CB4D0008274E0008214E000801
:104E2000B5F1C07FD3D1402363650120E5E7022AB5
:104E3000F9D9032AC8E7012070BD00BF3F8010F0F8
:104E400038B5054620B390F83540E4B2022C1DD0A9
:104E500003681A6822F0010200241A6021221C60F3
:104E60005C609C60DC601C615A61FFF755FFEA6D75
:104E7000EC633F2393402C646C64AC64EC642C655D
:104E800083606C6585F8344085F83540204638BD30
:104E9000012038BD70B50468049D666C45EA034383
:104EA00006F04046334363644368E263B3F5403F32
:104EB00030D186681EB1012E03D121F07F41A1635C
:104EC00070BD022E01F47F0301F47F45C8B207D103
:104ED000D90CAD0AC90241EA451141EAD001EEE719
:104EE000032E01F07F420AD1DB0CED0A9B0243EA5C
:104EF000451343EAD003D10F43EAC131DFE7190D6F
:104F00002D0B090241EA051141EA1011130F41EA84
:104F10000331D4E7E16070BD10B5044630B390F8BA
:104F2000393003F0FF021BB980F8382002F010FD81
:104F300022686168022384F83930136823F440330F
:104F40000B431360536BA16823F007030B435363B8
:104F5000136CE16823F47F5323F03F030B43136486
:104F600000200123E06384F8393010BD012010BD1A
:104F700073B590F83840012C05464FF002040FD06D
:104F800080F839400126069C80F838600094FFF7CD
:104F900081FF2A68136833431360002002B070BD9C
:104FA0002046FBE773B50023019303681B68DB070A
:104FB00004460D4617D42268D369526A13439E06ED
:104FC00006D5FFF713FE064623685A68D20643D576
:104FD000236812229A600020012384F8393084F873
:104FE000380002B070BDFFF701FE064623685A681C
:104FF0009207E0D45A680192019A12F0210F17D05B
:10500000019A950642BFE26B42F00202E263019A06
:10501000D00742BFE26B42F00102E26321229A60B4
:10502000042384F83930002384F838300120D8E78D
:10503000691CDCD0FFF7DAFD801B854201D3002D0F
:10504000D4D1E36B43F02003E3630320002384F80F
:10505000390084F83830C4E75A680192019A12F096
:10506000290F16D0019A160742BFE26B42F00402E4
:10507000E263019A950642BFE26B42F00202E263EC
:10508000019AD00742BFE26B42F00102E26329229B
:10509000C5E7691C99D0FFF7A9FD801B8542D0D3D5
:1050A000002D91D1CDE770477047036870B55E68F9
:1050B0001D68F207044614D5E90512D51A6822F4D2
:1050C00080721A60C26B42F00102C26301229A60D0
:1050D000042380F83930002380F83830436903B165
:1050E0009847B20616D5AB0414D523681A6822F483
:1050F00000521A6020229A60E36B43F00203E363DC
:10510000042384F83930002384F8383063690BB104
:1051100020469847300716D5290514D523681A6804
:1051200022F400621A6008229A60E36B43F00403E1
:10513000E363042384F83930002384F8383063694A
:105140000BB12046984772070BD56B0509D523682C
:105150001A6822F480621A6004229A602046FFF7DF
:10516000A2FFB00714D5A90512D523681A6822F446
:1051700000721A6002229A60E36BE363012384F8F1
:105180003930002384F8383023690BB12046984722
:10519000F20613D5EB0411D523681A6822F4805265
:1051A0001A6010229A60E36BE363012384F83930BC
:1051B000002384F838302046FFF776FF70BD0000EA
:1051C00090F83830012BF0B54FF0020336D00E01C5
:1051D00080F8393083190122DD6980F838201A6A95
:1051E0005C6A1B4F036845EA0242093D012D0FD856
:1051F00004F07F4E4EEA020269B9596A39400A4307
:105200005A6282699A61426A22F07F429A620FE092
:1052100042EA0462A1B1D969064439400A43012D2A
:10522000DA6198BF24F07F44B2691A6198BF1C62AA
:10523000012380F83930002380F838301846F0BD5B
:10524000596A39400A435A6282699A61F0E700BF9D
:10525000F0FFFC002DE9F04F85B00B68DFF8C4814A
:105260006E4ADFF8C491019300234FF0010E019CB8
:105270000EFA03FE0EEA0406B64540F0B6804C680E
:1052800024F01007022F16D14FEAD30A00EB8A0A46
:1052900003F0070BDAF820504FEA8B0B4FF00F0C9E
:1052A0000CFA0BFC25EA0C0C0D6905FA0BF545EA26
:1052B0000C05CAF820504FEA430A0325D0F800B085
:1052C00005FA0AF5ED4304F0030C0BEA050B0CFAA2
:1052D0000AFC013F4CEA0B0C012FC0F800C011D8AA
:1052E000876807EA050BCF6807FA0AFC4CEA0B0748
:1052F0008760476827EA0E0EC4F300179F4047EA0D
:105300000E074760C7683D408F6807FA0AF73D43BC
:10531000C560E50069D54FF0000BCDF80CB0D8F8AA
:1053200044703F4D47F48047C8F84470D8F8447043
:1053300007F480470397039F23F0030707F1804793
:1053400007F59C3703F0030CD7F808A04FEA8C0C44
:105350004FF00F0E0EFA0CFEA8422AEA0E0E4BD0AA
:1053600005F58065A84249D005F58065A84247D07B
:1053700005F58065A84245D005F58065A84243D073
:10538000484543D005F50065A84241D005F5806544
:10539000A8423FD005F58065A8423DD005F580655F
:1053A000A84214BF0A25092505FA0CF545EA0E05A1
:1053B000BD601568F74314F4803F0CBF3D40354392
:1053C0001560556814F4003F0CBF3D4035435560EF
:1053D000956814F4801F0CBF3D4035439560D56837
:1053E000A40254BF3D403543D5600133102B7FF4F8
:1053F0003CAF05B0BDE8F08F5D46D5E70125D3E7AA
:105400000225D1E70325CFE70425CDE70525CBE726
:105410000625C9E70725C7E70825C5E7003C014081
:105420000000024000380240001402402DE9F04F15
:10543000464DDFF82091DFF820A1DFF820B10022EF
:10544000012303FA02FC0CEA0104A44567D122F00F
:10545000030606F1804606F59C3602F0030E3C4B2F
:10546000D6F808804FEA8E0E0F2707FA0EF79842FB
:1054700008EA070858D003F58063984256D003F530
:105480008063984254D003F58063984252D003F56C
:105490008063984250D0484550D0504550D0584530
:1054A00050D003F5805398424ED003F58063984264
:1054B0000CBF09230A2303FA0EF3984510D1B368F1
:1054C00023EA0707B7602B68E44323402B606B682F
:1054D00023406B60AB682340AB60EB681C40EC6022
:1054E000560003230468B340DB431C400460D40827
:1054F00000EB840402F0070E266A4FEA8E0E0F2797
:1055000007FA0EF726EA0707276284681C408460C2
:10551000446824EA0C044460C4682340C360013238
:10552000102A8DD1BDE8F08F0023C4E70123C2E724
:105530000223C0E70323BEE70423BCE70523BAE741
:105540000623B8E70723B6E70823B4E7003C014089
:10555000000002400014024000180240001C0240FB
:105560000AB1816170470904FBE7436931EA03032B
:1055700008BF09048161704701684B6913F48063B7
:105580004FF0000210D06FF480634B612023026360
:1055900080F83D3080F83E20036C80F83C2043F0DA
:1055A0000403036401207047184670472DE9F8434F
:1055B000044617469946C1F307488EB22568B8F1EC
:1055C000010F0CBF6B69AB6936EA030314BF0120FE
:1055D000002008B9BDE8F8836B695A0516D52B6819
:1055E00043F400732B606FF480636B61202200230F
:1055F000236384F83D2084F83E30226C42F004029C
:10560000226484F83C300120BDE8F8837B1CD5D0AF
:10561000FFF7ECFAA0EB0900874201D3002FCDD1B0
:1056200000232022236384F83D2084F83E30226C3E
:1056300042F02002E4E770B504460D4616462368A2
:105640005B695B0701D5002070BD2046FFF794FF22
:10565000A8B96A1CF3D0FFF7C9FA801B854201D3B1
:10566000002DECD100232022236384F83D2084F810
:105670003E30226C84F83C3042F02002226401204B
:1056800070BD70B504460D4616462068436913F098
:10569000400301D0002070BD4269D2060ED56FF0E4
:1056A000100242612022236384F83D2084F83E30BA
:1056B000226C226484F83C30012070BDFFF796FA1A
:1056C000801BA84201D8002DDFD1002320222363B4
:1056D00084F83D2084F83E30226C42F02002E8E756
:1056E0002DE9F843089E044690461F46C1F307493A
:1056F0008DB22368B9F1010F0CBF5B699B6935EA74
:1057000003030CBF01230023434502D00020BDE862
:10571000F8837B1CEDD0FFF769FA801B874201D329
:10572000002FE6D100232022236384F83D2084F853
:105730003E30226C84F83C3042F02002226401208A
:10574000BDE8F88370B504460D46164623685B69CC
:105750001B0601D5002070BD2046FFF70DFFA8B93C
:105760006A1CF3D0FFF742FA801B854201D3002D5B
:10577000ECD100232022236384F83D2084F83E30BE
:10578000226C84F83C3042F020022264012070BD7B
:105790002DE9FF41154602680B9E9846136843F4B5
:1057A000807313600F4600960A9B00224FF0011190
:1057B0000446FFF795FF18B1012004B0BDE8F08161
:1057C00023680A9A184907F0FE071F6120463346EE
:1057D000FFF7ECFE0028EFD1236803905A6903928B
:1057E0009B69039332460A99039B2046FFF7AAFF61
:1057F00040B1236C042B01BF2268136843F400738B
:105800001360D9E7B8F1010F236802D1EDB21D6131
:10581000D3E72A0A1A610A9932462046FFF792FF17
:105820000028E6D12368F1E7020001002DE9FF41DD
:10583000984603680B9D16461A6842F480621A6007
:105840001A6842F480721A600F4600950A9B002283
:105850004FF001110446FFF743FF18B1012004B0D7
:10586000BDE8F08123682B49FFB207F0FE021A6100
:1058700020462B460A9AFFF799FE0028EED12368AE
:1058800003905A6903929B6903932A460A99039BE2
:105890002046FFF757FF40B1236C042B01BF22685D
:1058A000136843F400731360D8E7B8F1010F23685D
:1058B00025D1F6B21E612A460A992046FFF742FF1B
:1058C00002460028E8D121680B6843F480730B601E
:1058D000204600950A9B4FF00111FFF701FF0028B9
:1058E000BCD123680A9A0B4947F001071F61204683
:1058F0002B46FFF75BFE003018BF0120AFE7320AEE
:105900001A610A992A462046FFF71CFF0028C3D1D6
:105910002368CEE70200010070B5044608B90120F3
:1059200070BD90F83D3003F0FF021BB980F83C20B9
:1059300002F042F92268242384F83D30136823F0F2
:105940000103136000F0D2FE6568414B9D424DD8C3
:10595000404B9842E3D922683F495368B0FBF1F1CC
:1059600023F03F030B435360136A23F03F030131DD
:1059700019431162D169364B21F44F419D4221F008
:10598000FF0100F1FF3048D86D00B0FBF5F00130A9
:10599000C0F30B03042B38BF04230B43D3611168FE
:1059A000206AE36921F0C00103430B43136091684F
:1059B000E068236921F40341034321F0FF010B4315
:1059C0009360D168A069636921F0FF0103430B4331
:1059D000D360136843F00103136000202023206488
:1059E00084F83D30206384F83E0070BD1B4B984224
:1059F00095D92268184E5368B0FBF6F623F03F03A2
:105A000033435360136A4FF49671714323F03F039D
:105A10004FF47A76B1FBF6F1A9E7A36853B905EB29
:105A20004503B0FBF3F0431CC3F30B036BB143F42A
:105A30000043B2E719236B43B0FBF3F0431CC3F3FD
:105A40000B0313B143F44043A7E70123A5E700BFCD
:105A5000A08601007F841E0040420F00FF083D0029
:105A600010B5044698B10268242380F83D301368CD
:105A700023F00103136002F0A1F80020206484F8F1
:105A80003C0084F83D00206384F83E0010BD0120F6
:105A900010BD00002DE9F743044699460F46904695
:105AA0000C9EFFF7A3F894F83D30202B054603D059
:105AB000022003B0BDE8F0830090192301223B4986
:105AC0002046FFF70DFE0028F2D194F83C30012B60
:105AD000EED0012384F83C3023681A68D1075EBFFA
